:020000040000FA
:100000000C9458000C9480000C9480000C94B7045D
:100010000C94B7040C94B7040C9480000C948000EA
:100020000C9480000C9480000C9480000C94800050
:100030000C9480000C9480000C9480000C94800040
:100040000C9452030C9480000C9420030C94FA023C
:100050000C9480000C9480000C9480000C94800020
:100060000C949C030C9480000000000025002800E4
:100070002B00040404040404040402020202020229
:10008000030303030303010204081020408001025C
:1000900004081020010204081020000000080002DB
:1000A0000100000304070000000000000000C1047C
:1000B00011241FBECFEFD8E0DEBFCDBF22E0AAE201
:1000C000B1E001C01D92A938B207E1F711E0A0E04C
:1000D000B1E0EAE0FCE002C005900D92AA32B1075F
:1000E000D9F710E0C8E5D0E004C02197FE010E94D6
:1000F000FD05C735D107C9F70E9400050C9403061A
:100100000C940000CF92DF92EF92FF920F931F9317
:100110002FB7F894C090A201D090A301E090A40161
:10012000F090A5012FBF6C0D7D1D8E1D9F1D4FB73B
:10013000F8940091A2011091A3012091A4013091A3
:10014000A5014FBF0C151D052E053F0528F06017B2
:1001500071078207930758F71F910F91FF90EF9057
:10016000DF90CF900895AF92BF92CF92DF92EF923F
:10017000FF920F931F93CF93DF936C017B018B0151
:10018000040F151FEB015E01AE18BF08C017D107A1
:1001900059F06991D601ED91FC910190F081E02D2B
:1001A000C6010995892B79F7C501DF91CF911F9180
:1001B0000F91FF90EF90DF90CF90BF90AF90089598
:1001C0000895FC01538D448D252F30E0842F90E05D
:1001D000821B930B541710F0CF9608950197089542
:1001E000FC01918D828D981761F0A28DAE0FBF2F0B
:1001F000B11D5D968C91928D9F5F9F73928F90E061
:1002000008958FEF9FEF0895FC01918D828D9817CF
:1002100031F0828DE80FF11D858D90E008958FEF0C
:100220009FEF0895FC01918D228D892F90E0805CD5
:100230009F4F821B91098F739927089586EA91E059
:100240000E94120121E0892B09F420E0822F0895F9
:1002500080E090E0892B29F00E941E0181110C940E
:1002600000000895FC01A48DA80FB92FB11DA35A59
:10027000BF4F2C91848D90E001968F739927848FC6
:10028000A689B7892C93A089B1898C9183708064E9
:100290008C93938D848D981306C00288F389E02D8A
:1002A00080818F7D80830895EF92FF920F931F933B
:1002B000CF93DF93EC0181E0888F9B8D8C8D981319
:1002C0001AC0E889F989808185FF15C09FB7F89425
:1002D000EE89FF896083E889F98980818370806471
:1002E00080839FBF81E090E0DF91CF911F910F91BC
:1002F000FF90EF900895F62E0B8D10E00F5F1F4FCB
:100300000F731127E02E8C8D8E110CC00FB607FCD9
:10031000FACFE889F989808185FFF5CFCE010E9467
:100320003201F1CFEB8DEC0FFD2FF11DE35AFF4FA2
:10033000F0829FB7F8940B8FEA89FB8980818062F5
:10034000CFCFCF93DF93EC01888D8823B9F0AA89B2
:10035000BB89E889F9898C9185FD03C0808186FD80
:100360000DC00FB607FCF7CF8C9185FFF2CF8081CF
:1003700085FFEDCFCE010E943201E9CFDF91CF9111
:10038000089590E0FC01E656FF4F2491FC01EA57E6
:10039000FF4F3491FC01EE58FF4FE491EE23C9F07A
:1003A000222339F0233001F1A8F4213019F1223051
:1003B00029F1F0E0EE0FFF1FE859FF4FA591B4912E
:1003C0008FB7F894EC91611126C030953E233C9391
:1003D0008FBF08952730A9F02830C9F0243049F79D
:1003E000809180008F7D03C0809180008F77809303
:1003F0008000DFCF84B58F7784BDDBCF84B58F7D60
:10040000FBCF8091B0008F778093B000D2CF8091E6
:10041000B0008F7DF9CF3E2BDACF3FB7F8948091B3
:100420009E0190919F01A091A001B091A10126B5DC
:10043000A89B05C02F3F19F00196A11DB11D3FBF1C
:10044000BA2FA92F982F8827BC01CD01620F711DEB
:10045000811D911D42E0660F771F881F991F4A95E5
:10046000D1F7089520915301260F3327331F2132EE
:100470003105ECF420917701FC0190E080E024301C
:1004800069F082E00895A09153012191AC014D5C87
:100490005E4FA40FB52FB11D2C930196861798F3CC
:1004A00080915301680F6093530180E0089581E0CB
:1004B00008958FEF9FEF08958FEF9FEF089580913C
:1004C0002C0190E09195819591090895CF93DF9348
:1004D000CB01EA01642F0E943202CE01DF91CF915D
:1004E0000895CF93DF931F92CDB7DEB7698361E0A4
:1004F000CE0101960E94320281E090E00F90DF91E0
:10050000CF91089590E080E008951F93CF93DF93FB
:1005100085ED8093BC0080912F0190913001A091D6
:100520003101B09132010796A11DB11D23E0B695AE
:10053000A795979587952A95D1F72091BC0024FD22
:1005400003C01092770152C040912F0150913001A9
:100550006091310170913201452B462B472B69F395
:100560000097A105B10541F02AE22A95F1F700C0F4
:100570000197A109B109E1CF80912E01C1E0C0939B
:100580002D01882399F1D091B8001091BA00809183
:10059000BC008A7B8093BC0060E082E10E94C101C4
:1005A00060E083E10E94C10110927701C09379015C
:1005B0001092780161E082E10E94C10161E083E173
:1005C0000E94C1018091B9008E7F8093B900809113
:1005D000B9008D7F8093B90088E48093B80085E4EA
:1005E0008093BC001093BA00D093B800DF91CF91F4
:1005F0001F9108951F920F920FB60F9211242F93FF
:100600003F934F935F936F937F938F939F93AF939A
:10061000BF93EF93FF9386EA91E00E943201FF912E
:10062000EF91BF91AF919F918F917F916F915F916A
:100630004F913F912F910F900FBE0F901F901895E3
:100640001F920F920FB60F9211242F938F939F93A7
:10065000EF93FF93E091B601F091B7018081E091B3
:10066000BC01F091BD0182FD1BC090818091BF0152
:100670008F5F8F732091C001821741F0E091BF011D
:10068000F0E0EA55FE4F958F8093BF01FF91EF9107
:100690009F918F912F910F900FBE0F901F901895E3
:1006A0008081F4CF1F920F920FB60F9211242F93D7
:1006B0003F938F939F93AF93BF938091A2019091AB
:1006C000A301A091A401B091A50130919D0123E067
:1006D000230F2D3758F50196A11DB11D20939D01C3
:1006E0008093A2019093A301A093A401B093A501CC
:1006F00080919E0190919F01A091A001B091A101D4
:100700000196A11DB11D80939E0190939F01A0931E
:10071000A001B093A101BF91AF919F918F913F91A3
:100720002F910F900FBE0F901F90189526E8230F62
:100730000296A11DB11DD2CF1F920F920FB60F923C
:1007400011242F933F934F935F936F937F938F93D6
:100750009F93AF93BF93EF93FF938091B900887FEE
:10076000803609F44AC0F0F5883209F4A5C018F5BE
:10077000803109F499C0B8F4882309F4F5C08830B1
:1007800009F492C0FF91EF91BF91AF919F918F912A
:100790007F916F915F914F913F912F910F900FBE7D
:1007A0000F901F901895883109F486C0803251F758
:1007B0008093760114C0803409F49BC040F48033E8
:1007C000B9F38833F9F68093760185ECAEC08035B5
:1007D00009F483C0883509F494C0883499F60E94DE
:1007E0008502D0CF883909F48AC038F5883729F0D6
:1007F00050F4883611F0803729F683E08093770132
:100800001092750155C0883809F479C0803919F003
:10081000803809F0B7CF80917501803208F06FC041
:10082000E091750181E08E0F809375018091BB008E
:10083000F0E0EB5AFE4F80833BC0803B39F0D0F4B0
:10084000803A09F477C0883A09F09CCF84E080931D
:1008500077011092540110925301F0E0E0E0099505
:100860008091530181110FC081E080935301109258
:10087000330109C0803C09F4A8CF883C09F4A5CF16
:10088000883B09F07FCFE091540181E08E0F809387
:100890005401F0E0ED5CFE4F80818093BB009091AD
:1008A00054018091530129C080919C018093BB0029
:1008B00085EC8093BC0066CF90919B0180919A015A
:1008C000981758F5E0919B0181E08E0F80939B0172
:1008D000F0E0E658FE4F8081E9CFE0919B0181E096
:1008E0008E0F80939B018091BB00F0E0E658FE4F95
:1008F000808390919B0180919A019817C8F285E8B6
:10090000D8CFE0919B0181E08E0F80939B01809175
:10091000BB00F0E0E658FE4F8083809179018111A1
:100920005ECF81E08093780184EA8093BC001092CE
:10093000770128CF85EC8093BC00109277018091DD
:100940007501803230F4E0917501F0E0EB5AFE4F12
:1009500010826091750170E085E591E0F0E0E0E0E3
:100960000995109275010ECF1092760138CF1F9223
:100970000F920FB60F9211240F900FBE0F901F9081
:100980001895E6EAF1E01382128288EE93E0A0E087
:10099000B0E084839583A683B78384E091E091835C
:1009A000808385EC90E09587848784EC90E097873E
:1009B000868780EC90E0918B808B81EC90E0938B2C
:1009C000828B82EC90E0958B848B86EC90E0978B09
:1009D000868B118E128E138E148EE3E4F2E0168253
:1009E000178210861186128613861486158616863F
:1009F0001786108A118A128A138A148A158A089512
:100A0000789484B5826084BD84B5816084BD85B5E9
:100A1000826085BD85B5816085BD80916E008160F5
:100A200080936E001092810080918100826080939B
:100A3000810080918100816080938100809180009D
:100A40008160809380008091B10084608093B100C8
:100A50008091B00081608093B00080917A008460C2
:100A600080937A0080917A00826080937A008091EE
:100A70007A00816080937A0080917A008068809308
:100A80007A001092C1001092850210928602109294
:100A9000870210928802109245021092460210922C
:100AA00047021092480268EB7BE080E090E00E94F1
:100AB00082000E940D024B015C0188EEC82E83E08B
:100AC000D82EE12CF12C0E940D02681979098A09AF
:100AD0009B09683E734081059105A8F321E0C21A85
:100AE000D108E108F10888EE880E83E0981EA11C69
:100AF000B11CC114D104E104F10429F7E091B6015D
:100B0000F091B70182E08083E091B201F091B301EE
:100B10001082E091B401F091B50180E180831092E0
:100B2000BE01E091BA01F091BB0186E08083E091C3
:100B3000B801F091B901808180618083E091B801B2
:100B4000F091B901808188608083E091B801F091D3
:100B5000B901808180688083E091B801F091B9018A
:100B600080818F7D80832FB7F8948091A20190912E
:100B7000A301A091A401B091A5012FBF80934502CC
:100B800090934602A0934702B093480240E150E0A0
:100B900062E171E086EA91E00E94B3006AE070E0F1
:100BA00080E090E00E94820081E0809359022FB79C
:100BB000F8948091A2019091A301A091A401B09119
:100BC000A5012FBF8093450290934602A093470250
:100BD000B093480246E050E063E271E086EA91E0BB
:100BE0000E94B300C0E0D0E02097F1F30E941E0104
:100BF0008823D1F30E940000F7CFEE0FFF1F05906E
:100C0000F491E02D0994F894FFCF00000000540106
:100C1000B300E100A1011201F0000401564D44505F
:100C2000565F317C315F564D4450560A00564D4454
:040C300050525F00BF
:107E0000112484B714BE81FFF0D085E080938100F7
:107E100082E08093C00088E18093C10086E0809377
:107E2000C20080E18093C4008EE0C9D0259A86E02C
:107E300020E33CEF91E0309385002093840096BBD3
:107E4000B09BFECF1D9AA8958150A9F7CC24DD24C4
:107E500088248394B5E0AB2EA1E19A2EF3E0BF2EE7
:107E6000A2D0813461F49FD0082FAFD0023811F036
:107E7000013811F484E001C083E08DD089C08234E0
:107E800011F484E103C0853419F485E0A6D080C0E4
:107E9000853579F488D0E82EFF2485D0082F10E0AE
:107EA000102F00270E291F29000F111F8ED06801E7
:107EB0006FC0863521F484E090D080E0DECF843638
:107EC00009F040C070D06FD0082F6DD080E0C81688
:107ED00080E7D80618F4F601B7BEE895C0E0D1E017
:107EE00062D089930C17E1F7F0E0CF16F0E7DF06D8
:107EF00018F0F601B7BEE89568D007B600FCFDCFD4
:107F0000A601A0E0B1E02C9130E011968C91119780
:107F100090E0982F8827822B932B1296FA010C0160
:107F200087BEE89511244E5F5F4FF1E0A038BF0790
:107F300051F7F601A7BEE89507B600FCFDCF97BE46
:107F4000E89526C08437B1F42ED02DD0F82E2BD052
:107F50003CD0F601EF2C8F010F5F1F4F84911BD097
:107F6000EA94F801C1F70894C11CD11CFA94CF0C13
:107F7000D11C0EC0853739F428D08EE10CD085E9AC
:107F80000AD08FE07ACF813511F488E018D01DD067
:107F900080E101D065CF982F8091C00085FFFCCF94
:107FA0009093C60008958091C00087FFFCCF809118
:107FB000C00084FD01C0A8958091C6000895E0E648
:107FC000F0E098E1908380830895EDDF803219F02E
:107FD00088E0F5DFFFCF84E1DECF1F93182FE3DFCA
:107FE0001150E9F7F2DF1F91089580E0E8DFEE27F6
:047FF000FF270994CA
:027FFE00040479
:00000001FF
